{
  "contractName": "Math",
  "abi": [
    {
      "inputs": [
        {
          "internalType": "uint256",
          "name": "a",
          "type": "uint256"
        },
        {
          "internalType": "uint256",
          "name": "b",
          "type": "uint256"
        }
      ],
      "name": "min",
      "outputs": [
        {
          "internalType": "uint256",
          "name": "",
          "type": "uint256"
        }
      ],
      "stateMutability": "pure",
      "type": "function"
    },
    {
      "inputs": [
        {
          "internalType": "uint256",
          "name": "a",
          "type": "uint256"
        },
        {
          "internalType": "uint256",
          "name": "b",
          "type": "uint256"
        }
      ],
      "name": "max",
      "outputs": [
        {
          "internalType": "uint256",
          "name": "",
          "type": "uint256"
        }
      ],
      "stateMutability": "pure",
      "type": "function"
    },
    {
      "inputs": [
        {
          "internalType": "uint256",
          "name": "x",
          "type": "uint256"
        }
      ],
      "name": "logX64",
      "outputs": [
        {
          "internalType": "int128",
          "name": "",
          "type": "int128"
        }
      ],
      "stateMutability": "pure",
      "type": "function"
    }
  ],
  "bytecode": "0x61026061003a600b82828239805160001a60731461002d57634e487b7160e01b600052600060045260246000fd5b30600052607381538281f3fe730000000000000000000000000000000000000000301460806040526004361061004b5760003560e01c80634793dbab146100505780636d5433e61461007b5780637ae2b5c71461009c575b600080fd5b61006361005e3660046101ef565b6100af565b604051600f9190910b81526020015b60405180910390f35b61008e610089366004610208565b6100c8565b604051908152602001610072565b61008e6100aa366004610208565b6100df565b60006100c26100bd836100f7565b610115565b92915050565b6000818311156100d95750816100c2565b50919050565b6000818311156100f05750806100c2565b5090919050565b6000677fffffffffffffff82111561010e57600080fd5b5060401b90565b60008082600f0b1361012657600080fd5b6000600f83900b600160401b8112610140576040918201911d5b600160201b8112610153576020918201911d5b620100008112610165576010918201911d5b6101008112610176576008918201911d5b60108112610186576004918201911d5b60048112610196576002918201911d5b600281126101a5576001820191505b603f19820160401b600f85900b607f8490031b6001603f1b5b60008113156101e45790800260ff81901c8281029390930192607f011c9060011d6101be565b509095945050505050565b60006020828403121561020157600080fd5b5035919050565b6000806040838503121561021b57600080fd5b5050803592602090910135915056fea2646970667358221220f8a6da618a6a29b08ec64bb077f53b96ace352f6d47367699baa98a54182cc7364736f6c63430008110033",
  "immutableReferences": {},
  "source": "// SPDX-License-Identifier: MIT\npragma solidity ^0.8.10;\n\nimport \"./ABDKMath64x64.sol\";\n\nlibrary Math {\n    function min(uint256 a, uint256 b) external pure returns (uint256) {\n        if (a > b) return b;\n        return a;\n    }\n\n    function max(uint256 a, uint256 b) external pure returns (uint256) {\n        if (a > b) return a;\n        return b;\n    }\n\n    function logX64(uint256 x) external pure returns (int128) {\n        return ABDKMath64x64.log_2(ABDKMath64x64.fromUInt(x));\n    }\n}",
  "sourcePath": "/Users/chrismanning/Desktop/SolidityRepo/Production/XEN-crypto/contracts/Math.sol",
  "compiler": {
    "name": "solc",
    "version": "0.8.17+commit.8df45f5f.Emscripten.clang"
  },
  "schemaVersion": "3.4.3",
  "updatedAt": "2022-10-25T16:34:42.853Z",
  "devdoc": {
    "kind": "dev",
    "methods": {},
    "version": 1
  },
  "userdoc": {
    "kind": "user",
    "methods": {},
    "version": 1
  }
}