{
  "contractName": "XENCrypto",
  "abi": [
    {
      "inputs": [
        {
          "internalType": "bytes32",
          "name": "merkleRoot_",
          "type": "bytes32"
        }
      ],
      "stateMutability": "nonpayable",
      "type": "constructor"
    },
    {
      "anonymous": false,
      "inputs": [
        {
          "indexed": true,
          "internalType": "address",
          "name": "owner",
          "type": "address"
        },
        {
          "indexed": true,
          "internalType": "address",
          "name": "spender",
          "type": "address"
        },
        {
          "indexed": false,
          "internalType": "uint256",
          "name": "value",
          "type": "uint256"
        }
      ],
      "name": "Approval",
      "type": "event"
    },
    {
      "anonymous": false,
      "inputs": [
        {
          "indexed": false,
          "internalType": "uint256",
          "name": "index",
          "type": "uint256"
        },
        {
          "indexed": false,
          "internalType": "address",
          "name": "account",
          "type": "address"
        },
        {
          "indexed": false,
          "internalType": "uint256",
          "name": "amount",
          "type": "uint256"
        }
      ],
      "name": "Claimed",
      "type": "event"
    },
    {
      "anonymous": false,
      "inputs": [
        {
          "indexed": true,
          "internalType": "address",
          "name": "user",
          "type": "address"
        },
        {
          "indexed": false,
          "internalType": "uint256",
          "name": "rewardAmount",
          "type": "uint256"
        }
      ],
      "name": "MintClaimed",
      "type": "event"
    },
    {
      "anonymous": false,
      "inputs": [
        {
          "indexed": true,
          "internalType": "address",
          "name": "user",
          "type": "address"
        },
        {
          "indexed": false,
          "internalType": "uint256",
          "name": "term",
          "type": "uint256"
        },
        {
          "indexed": false,
          "internalType": "uint256",
          "name": "rank",
          "type": "uint256"
        }
      ],
      "name": "RankedClaimed",
      "type": "event"
    },
    {
      "anonymous": false,
      "inputs": [
        {
          "indexed": true,
          "internalType": "address",
          "name": "user",
          "type": "address"
        },
        {
          "indexed": false,
          "internalType": "uint256",
          "name": "amount",
          "type": "uint256"
        },
        {
          "indexed": false,
          "internalType": "uint256",
          "name": "term",
          "type": "uint256"
        }
      ],
      "name": "Staked",
      "type": "event"
    },
    {
      "anonymous": false,
      "inputs": [
        {
          "indexed": true,
          "internalType": "address",
          "name": "from",
          "type": "address"
        },
        {
          "indexed": true,
          "internalType": "address",
          "name": "to",
          "type": "address"
        },
        {
          "indexed": false,
          "internalType": "uint256",
          "name": "value",
          "type": "uint256"
        }
      ],
      "name": "Transfer",
      "type": "event"
    },
    {
      "anonymous": false,
      "inputs": [
        {
          "indexed": true,
          "internalType": "address",
          "name": "user",
          "type": "address"
        },
        {
          "indexed": false,
          "internalType": "uint256",
          "name": "amount",
          "type": "uint256"
        },
        {
          "indexed": false,
          "internalType": "uint256",
          "name": "reward",
          "type": "uint256"
        }
      ],
      "name": "Withdrawn",
      "type": "event"
    },
    {
      "inputs": [],
      "name": "DAYS_IN_YEAR",
      "outputs": [
        {
          "internalType": "uint256",
          "name": "",
          "type": "uint256"
        }
      ],
      "stateMutability": "view",
      "type": "function"
    },
    {
      "inputs": [],
      "name": "GENESIS_RANK",
      "outputs": [
        {
          "internalType": "uint256",
          "name": "",
          "type": "uint256"
        }
      ],
      "stateMutability": "view",
      "type": "function"
    },
    {
      "inputs": [],
      "name": "MAX_PENALTY_PCT",
      "outputs": [
        {
          "internalType": "uint256",
          "name": "",
          "type": "uint256"
        }
      ],
      "stateMutability": "view",
      "type": "function"
    },
    {
      "inputs": [],
      "name": "MAX_TERM_END",
      "outputs": [
        {
          "internalType": "uint256",
          "name": "",
          "type": "uint256"
        }
      ],
      "stateMutability": "view",
      "type": "function"
    },
    {
      "inputs": [],
      "name": "MAX_TERM_START",
      "outputs": [
        {
          "internalType": "uint256",
          "name": "",
          "type": "uint256"
        }
      ],
      "stateMutability": "view",
      "type": "function"
    },
    {
      "inputs": [],
      "name": "MIN_TERM",
      "outputs": [
        {
          "internalType": "uint256",
          "name": "",
          "type": "uint256"
        }
      ],
      "stateMutability": "view",
      "type": "function"
    },
    {
      "inputs": [],
      "name": "SECONDS_IN_DAY",
      "outputs": [
        {
          "internalType": "uint256",
          "name": "",
          "type": "uint256"
        }
      ],
      "stateMutability": "view",
      "type": "function"
    },
    {
      "inputs": [],
      "name": "START_TIME",
      "outputs": [
        {
          "internalType": "uint256",
          "name": "",
          "type": "uint256"
        }
      ],
      "stateMutability": "view",
      "type": "function"
    },
    {
      "inputs": [],
      "name": "WITHDRAWAL_WINDOW_DAYS",
      "outputs": [
        {
          "internalType": "uint256",
          "name": "",
          "type": "uint256"
        }
      ],
      "stateMutability": "view",
      "type": "function"
    },
    {
      "inputs": [],
      "name": "XEN_APY_DAYS_STEP",
      "outputs": [
        {
          "internalType": "uint256",
          "name": "",
          "type": "uint256"
        }
      ],
      "stateMutability": "view",
      "type": "function"
    },
    {
      "inputs": [],
      "name": "XEN_APY_END",
      "outputs": [
        {
          "internalType": "uint256",
          "name": "",
          "type": "uint256"
        }
      ],
      "stateMutability": "view",
      "type": "function"
    },
    {
      "inputs": [],
      "name": "XEN_APY_START",
      "outputs": [
        {
          "internalType": "uint256",
          "name": "",
          "type": "uint256"
        }
      ],
      "stateMutability": "view",
      "type": "function"
    },
    {
      "inputs": [],
      "name": "XEN_MIN_BURN",
      "outputs": [
        {
          "internalType": "uint256",
          "name": "",
          "type": "uint256"
        }
      ],
      "stateMutability": "view",
      "type": "function"
    },
    {
      "inputs": [],
      "name": "XEN_MIN_STAKE",
      "outputs": [
        {
          "internalType": "uint256",
          "name": "",
          "type": "uint256"
        }
      ],
      "stateMutability": "view",
      "type": "function"
    },
    {
      "inputs": [],
      "name": "activeMinters",
      "outputs": [
        {
          "internalType": "uint256",
          "name": "",
          "type": "uint256"
        }
      ],
      "stateMutability": "view",
      "type": "function"
    },
    {
      "inputs": [],
      "name": "activeStakes",
      "outputs": [
        {
          "internalType": "uint256",
          "name": "",
          "type": "uint256"
        }
      ],
      "stateMutability": "view",
      "type": "function"
    },
    {
      "inputs": [
        {
          "internalType": "address",
          "name": "owner",
          "type": "address"
        },
        {
          "internalType": "address",
          "name": "spender",
          "type": "address"
        }
      ],
      "name": "allowance",
      "outputs": [
        {
          "internalType": "uint256",
          "name": "",
          "type": "uint256"
        }
      ],
      "stateMutability": "view",
      "type": "function"
    },
    {
      "inputs": [
        {
          "internalType": "address",
          "name": "spender",
          "type": "address"
        },
        {
          "internalType": "uint256",
          "name": "amount",
          "type": "uint256"
        }
      ],
      "name": "approve",
      "outputs": [
        {
          "internalType": "bool",
          "name": "",
          "type": "bool"
        }
      ],
      "stateMutability": "nonpayable",
      "type": "function"
    },
    {
      "inputs": [
        {
          "internalType": "address",
          "name": "account",
          "type": "address"
        }
      ],
      "name": "balanceOf",
      "outputs": [
        {
          "internalType": "uint256",
          "name": "",
          "type": "uint256"
        }
      ],
      "stateMutability": "view",
      "type": "function"
    },
    {
      "inputs": [],
      "name": "decimals",
      "outputs": [
        {
          "internalType": "uint8",
          "name": "",
          "type": "uint8"
        }
      ],
      "stateMutability": "view",
      "type": "function"
    },
    {
      "inputs": [
        {
          "internalType": "address",
          "name": "spender",
          "type": "address"
        },
        {
          "internalType": "uint256",
          "name": "subtractedValue",
          "type": "uint256"
        }
      ],
      "name": "decreaseAllowance",
      "outputs": [
        {
          "internalType": "bool",
          "name": "",
          "type": "bool"
        }
      ],
      "stateMutability": "nonpayable",
      "type": "function"
    },
    {
      "inputs": [],
      "name": "genesisTs",
      "outputs": [
        {
          "internalType": "uint256",
          "name": "",
          "type": "uint256"
        }
      ],
      "stateMutability": "view",
      "type": "function"
    },
    {
      "inputs": [],
      "name": "globalRank",
      "outputs": [
        {
          "internalType": "uint256",
          "name": "",
          "type": "uint256"
        }
      ],
      "stateMutability": "view",
      "type": "function"
    },
    {
      "inputs": [
        {
          "internalType": "address",
          "name": "spender",
          "type": "address"
        },
        {
          "internalType": "uint256",
          "name": "addedValue",
          "type": "uint256"
        }
      ],
      "name": "increaseAllowance",
      "outputs": [
        {
          "internalType": "bool",
          "name": "",
          "type": "bool"
        }
      ],
      "stateMutability": "nonpayable",
      "type": "function"
    },
    {
      "inputs": [],
      "name": "merkleRoot",
      "outputs": [
        {
          "internalType": "bytes32",
          "name": "",
          "type": "bytes32"
        }
      ],
      "stateMutability": "view",
      "type": "function"
    },
    {
      "inputs": [],
      "name": "name",
      "outputs": [
        {
          "internalType": "string",
          "name": "",
          "type": "string"
        }
      ],
      "stateMutability": "view",
      "type": "function"
    },
    {
      "inputs": [],
      "name": "symbol",
      "outputs": [
        {
          "internalType": "string",
          "name": "",
          "type": "string"
        }
      ],
      "stateMutability": "view",
      "type": "function"
    },
    {
      "inputs": [],
      "name": "totalSupply",
      "outputs": [
        {
          "internalType": "uint256",
          "name": "",
          "type": "uint256"
        }
      ],
      "stateMutability": "view",
      "type": "function"
    },
    {
      "inputs": [],
      "name": "totalXenStaked",
      "outputs": [
        {
          "internalType": "uint256",
          "name": "",
          "type": "uint256"
        }
      ],
      "stateMutability": "view",
      "type": "function"
    },
    {
      "inputs": [
        {
          "internalType": "address",
          "name": "to",
          "type": "address"
        },
        {
          "internalType": "uint256",
          "name": "amount",
          "type": "uint256"
        }
      ],
      "name": "transfer",
      "outputs": [
        {
          "internalType": "bool",
          "name": "",
          "type": "bool"
        }
      ],
      "stateMutability": "nonpayable",
      "type": "function"
    },
    {
      "inputs": [
        {
          "internalType": "address",
          "name": "from",
          "type": "address"
        },
        {
          "internalType": "address",
          "name": "to",
          "type": "address"
        },
        {
          "internalType": "uint256",
          "name": "amount",
          "type": "uint256"
        }
      ],
      "name": "transferFrom",
      "outputs": [
        {
          "internalType": "bool",
          "name": "",
          "type": "bool"
        }
      ],
      "stateMutability": "nonpayable",
      "type": "function"
    },
    {
      "inputs": [
        {
          "internalType": "address",
          "name": "",
          "type": "address"
        }
      ],
      "name": "userBurns",
      "outputs": [
        {
          "internalType": "uint256",
          "name": "",
          "type": "uint256"
        }
      ],
      "stateMutability": "view",
      "type": "function"
    },
    {
      "inputs": [
        {
          "internalType": "address",
          "name": "",
          "type": "address"
        }
      ],
      "name": "userMints",
      "outputs": [
        {
          "internalType": "address",
          "name": "user",
          "type": "address"
        },
        {
          "internalType": "bool",
          "name": "claimed",
          "type": "bool"
        },
        {
          "internalType": "uint256",
          "name": "amount",
          "type": "uint256"
        }
      ],
      "stateMutability": "view",
      "type": "function"
    },
    {
      "inputs": [
        {
          "internalType": "address",
          "name": "",
          "type": "address"
        }
      ],
      "name": "userStakes",
      "outputs": [
        {
          "internalType": "uint256",
          "name": "term",
          "type": "uint256"
        },
        {
          "internalType": "uint256",
          "name": "maturityTs",
          "type": "uint256"
        },
        {
          "internalType": "uint256",
          "name": "amount",
          "type": "uint256"
        },
        {
          "internalType": "uint256",
          "name": "apy",
          "type": "uint256"
        }
      ],
      "stateMutability": "view",
      "type": "function"
    },
    {
      "inputs": [
        {
          "internalType": "uint256",
          "name": "index",
          "type": "uint256"
        }
      ],
      "name": "isClaimed",
      "outputs": [
        {
          "internalType": "bool",
          "name": "",
          "type": "bool"
        }
      ],
      "stateMutability": "view",
      "type": "function"
    },
    {
      "inputs": [],
      "name": "getUserMint",
      "outputs": [
        {
          "components": [
            {
              "internalType": "address",
              "name": "user",
              "type": "address"
            },
            {
              "internalType": "bool",
              "name": "claimed",
              "type": "bool"
            },
            {
              "internalType": "uint256",
              "name": "amount",
              "type": "uint256"
            }
          ],
          "internalType": "struct XENCrypto.MintInfo",
          "name": "",
          "type": "tuple"
        }
      ],
      "stateMutability": "view",
      "type": "function"
    },
    {
      "inputs": [],
      "name": "getUserStake",
      "outputs": [
        {
          "components": [
            {
              "internalType": "uint256",
              "name": "term",
              "type": "uint256"
            },
            {
              "internalType": "uint256",
              "name": "maturityTs",
              "type": "uint256"
            },
            {
              "internalType": "uint256",
              "name": "amount",
              "type": "uint256"
            },
            {
              "internalType": "uint256",
              "name": "apy",
              "type": "uint256"
            }
          ],
          "internalType": "struct XENCrypto.StakeInfo",
          "name": "",
          "type": "tuple"
        }
      ],
      "stateMutability": "view",
      "type": "function"
    },
    {
      "inputs": [],
      "name": "getCurrentAPY",
      "outputs": [
        {
          "internalType": "uint256",
          "name": "",
          "type": "uint256"
        }
      ],
      "stateMutability": "view",
      "type": "function"
    },
    {
      "inputs": [
        {
          "internalType": "uint256",
          "name": "index",
          "type": "uint256"
        },
        {
          "internalType": "address",
          "name": "account",
          "type": "address"
        },
        {
          "internalType": "uint256",
          "name": "_amount",
          "type": "uint256"
        },
        {
          "internalType": "bytes32[]",
          "name": "merkleProof",
          "type": "bytes32[]"
        }
      ],
      "name": "claim",
      "outputs": [],
      "stateMutability": "nonpayable",
      "type": "function"
    },
    {
      "inputs": [],
      "name": "claimMintReward",
      "outputs": [],
      "stateMutability": "nonpayable",
      "type": "function"
    },
    {
      "inputs": [
        {
          "internalType": "address",
          "name": "other",
          "type": "address"
        },
        {
          "internalType": "uint256",
          "name": "pct",
          "type": "uint256"
        }
      ],
      "name": "claimMintRewardAndShare",
      "outputs": [],
      "stateMutability": "nonpayable",
      "type": "function"
    },
    {
      "inputs": [
        {
          "internalType": "uint256",
          "name": "pct",
          "type": "uint256"
        },
        {
          "internalType": "uint256",
          "name": "term",
          "type": "uint256"
        }
      ],
      "name": "claimMintRewardAndStake",
      "outputs": [],
      "stateMutability": "nonpayable",
      "type": "function"
    },
    {
      "inputs": [
        {
          "internalType": "uint256",
          "name": "amount",
          "type": "uint256"
        },
        {
          "internalType": "uint256",
          "name": "term",
          "type": "uint256"
        }
      ],
      "name": "stake",
      "outputs": [],
      "stateMutability": "nonpayable",
      "type": "function"
    },
    {
      "inputs": [],
      "name": "withdraw",
      "outputs": [],
      "stateMutability": "nonpayable",
      "type": "function"
    },
    {
      "inputs": [
        {
          "internalType": "address",
          "name": "user",
          "type": "address"
        },
        {
          "internalType": "uint256",
          "name": "amount",
          "type": "uint256"
        }
      ],
      "name": "burn",
      "outputs": [],
      "stateMutability": "nonpayable",
      "type": "function"
    }
  ],
  "bytecode": "0x60c060405260016006553480156200001657600080fd5b50604051620024a1380380620024a18339810160408190526200003991620000aa565b6040518060400160405280600c81526020016b4c4556494e2043727970746f60a01b815250604051806040016040528060038152602001622622ab60e91b81525081600390816200008b919062000169565b5060046200009a828262000169565b50504260a0525060805262000235565b600060208284031215620000bd57600080fd5b5051919050565b634e487b7160e01b600052604160045260246000fd5b600181811c90821680620000ef57607f821691505b6020821081036200011057634e487b7160e01b600052602260045260246000fd5b50919050565b601f8211156200016457600081815260208120601f850160051c810160208610156200013f5750805b601f850160051c820191505b8181101562000160578281556001016200014b565b5050505b505050565b81516001600160401b03811115620001855762000185620000c4565b6200019d81620001968454620000da565b8462000116565b602080601f831160018114620001d55760008415620001bc5750858301515b600019600386901b1c1916600185901b17855562000160565b600085815260208120601f198616915b828110156200020657888601518255948401946001909101908401620001e5565b5085821015620002255787850151600019600388901b60f8161c191681555b5050505050600190811b01905550565b60805160a05161223862000269600039600081816105c50152611bb401526000818161032d0152610a5d01526122386000f3fe608060405234801561001057600080fd5b506004361061021f5760003560e01c806361a52a361161012c57806361a52a36146103945780637010d7a11461039e57806370a082311461041a5780637b0472f0146104435780637e7aa62e146104565780638da7ad231461045e57806395d89b41146104b3578063962ca496146104bb5780639dc29fac146104c35780639e34070f146104d6578063a457c2d7146104e9578063a9059cbb146104fc578063b4800cdc1461050f578063c0c6525914610518578063c56f0bab14610224578063ce653d5f14610520578063dd62ed3e14610540578063ddaa26ad14610553578063df2823311461055e578063e3af6d0a146105c0578063ed2f2369146105e7578063f0604829146105f0578063fed74269146105f857600080fd5b80630237893214610224578063069612a51461024057806306fdde0314610249578063095ea7b31461025e5780630bfae56b146102815780630f2e122814610289578063110d7fc21461029157806316f9c8fd1461029957806318160ddd146102d45780631c244082146102dc5780631c560305146102e55780631c6f212e146102fa57806323b872dd146103025780632a62d966146102915780632e7ba6ef146103155780632eb4a7ab14610328578063313ce5671461034f57806332870fda14610224578063395093511461035e5780633ccfd60b1461037157806352c7f8dc146103795780635bccb4c414610381575b600080fd5b61022d61016d81565b6040519081526020015b60405180910390f35b61022d60095481565b610251610600565b6040516102379190611d5c565b61027161026c366004611dc6565b610692565b6040519015158152602001610237565b61022d6106ac565b61022d606381565b61022d600081565b6102a16106bd565b60405161023791908151815260208083015190820152604080830151908201526060918201519181019190915260800190565b60025461022d565b61022d60065481565b6102f86102f3366004611dc6565b61072e565b005b61022d600181565b610271610310366004611df0565b610957565b6102f8610323366004611e2c565b61097b565b61022d7f000000000000000000000000000000000000000000000000000000000000000081565b60405160128152602001610237565b61027161036c366004611dc6565b610bbe565b6102f8610be0565b6102f8610d34565b6102f861038f366004611ec3565b610df5565b61022d6201518081565b604080516060808201835260008083526020808401829052928401819052338152600a83528390208351808301855281546001600160a01b038116808352600160a01b90910460ff1615158286019081526001909301549186019182528551908152915115159382019390935291519282019290925201610237565b61022d610428366004611ee5565b6001600160a01b031660009081526020819052604090205490565b6102f8610451366004611ec3565b61106d565b61022d600f81565b61049361046c366004611ee5565b600b6020526000908152604090208054600182015460028301546003909301549192909184565b604080519485526020850193909352918301526060820152608001610237565b6102516111e2565b61022d6111f1565b6102f86104d1366004611dc6565b611200565b6102716104e4366004611f07565b6113b2565b6102716104f7366004611dc6565b6113f3565b61027161050a366004611dc6565b61146e565b61022d60075481565b61022d61147c565b61022d61052e366004611ee5565b600c6020526000908152604090205481565b61022d61054e366004611f20565b61148b565b61022d6363541b4081565b61059b61056c366004611ee5565b600a60205260009081526040902080546001909101546001600160a01b03821691600160a01b900460ff169083565b604080516001600160a01b039094168452911515602084015290820152606001610237565b61022d7f000000000000000000000000000000000000000000000000000000000000000081565b61022d60085481565b61022d6114b6565b61022d602581565b60606003805461060f90611f53565b80601f016020809104026020016040519081016040528092919081815260200182805461063b90611f53565b80156106885780601f1061065d57610100808354040283529160200191610688565b820191906000526020600020905b81548152906001019060200180831161066b57829003601f168201915b5050505050905090565b6000336106a08185856114cf565b60019150505b92915050565b6106ba620151806064611fa3565b81565b6106e86040518060800160405280600081526020016000815260200160008152602001600081525090565b50336000908152600b6020908152604091829020825160808101845281548152600182015492810192909252600281015492820192909252600390910154606082015290565b336000908152600a6020908152604091829020825160608101845281546001600160a01b038082168352600160a01b90910460ff161515938201939093526001909101549281019290925283166107da5760405162461bcd60e51b815260206004820152602560248201527f4352616e6b3a2043616e6e6f742073686172652077697468207a65726f206164604482015264647265737360d81b60648201526084015b60405180910390fd5b6000821161082a5760405162461bcd60e51b815260206004820181905260248201527f4352616e6b3a2043616e6e6f74207368617265207a65726f2070657263656e7460448201526064016107d1565b6065821061087a5760405162461bcd60e51b815260206004820181905260248201527f4352616e6b3a2043616e6e6f74207368617265203130302b2070657263656e7460448201526064016107d1565b602081015115156001146108a05760405162461bcd60e51b81526004016107d190611fba565b6363541b4042116108c35760405162461bcd60e51b81526004016107d190611fe9565b60006108d282604001516115f4565b6108e490670de0b6b3a7640000611fa3565b9050600060646108f48584611fa3565b6108fe9190612034565b9050600061090c8284612048565b9050610919335b8261163e565b610923868361163e565b61092b6116eb565b60405183815233906000805160206121c3833981519152906020015b60405180910390a2505050505050565b600033610965858285611723565b61097085858561179d565b506001949350505050565b610984856113b2565b156109e25760405162461bcd60e51b815260206004820152602860248201527f4d65726b6c654469737472696275746f723a2044726f7020616c72656164792060448201526731b630b4b6b2b21760c11b60648201526084016107d1565b60408051602081018790526001600160601b0319606087901b169181019190915260548101849052600090607401604051602081830303815290604052805190602001209050610a888383808060200260200160405190810160405280939291908181526020018383602002808284376000920191909152507f0000000000000000000000000000000000000000000000000000000000000000925085915061192f9050565b610ade5760405162461bcd60e51b815260206004820152602160248201527f4d65726b6c654469737472696275746f723a20496e76616c69642070726f6f666044820152601760f91b60648201526084016107d1565b610ae786611945565b60006040518060600160405280610afb3390565b6001600160a01b0390811682526001602080840182905260409384018a9052336000908152600a825284812086518154938801511515600160a01b026001600160a81b0319909416951694909417919091178355928401519101556007805492935090610b678361205b565b9091555050604080518881526001600160a01b03881660208201529081018690527f4ec90e965519d92681267467f775ada5bd214aa92c0dc93d90a5e880ce9ed0269060600160405180910390a150505050505050565b6000336106a0818585610bd1838361148b565b610bdb9190612074565b6114cf565b336000908152600b6020908152604091829020825160808101845281548152600182015492810192909252600281015492820183905260030154606082015290610c635760405162461bcd60e51b815260206004820152601460248201527358454e3a206e6f207374616b652065786973747360601b60448201526064016107d1565b6000610c818260400151836000015184602001518560600151611983565b600880549192506000610c9383612087565b9190505550816040015160096000828254610cae9190612048565b90915550610ccd905033828460400151610cc89190612074565b61163e565b60408083015181519081526020810183905233917f92ccf450a286a957af52509bc1c9939d1a6a481783e142e41e2499f0bb66ebc6910160405180910390a25050336000908152600b60205260408120818155600181018290556002810182905560030155565b336000908152600a6020908152604091829020825160608101845281546001600160a01b0381168252600160a01b900460ff1615159281018390526001918201549381019390935214610d995760405162461bcd60e51b81526004016107d190611fba565b6000610da882604001516115f4565b610dba90670de0b6b3a7640000611fa3565b9050610dc533610913565b610dcd6116eb565b60405181815233906000805160206121c3833981519152906020015b60405180910390a25050565b336000908152600a6020908152604091829020825160608101845281546001600160a01b0381168252600160a01b900460ff16151592810192909252600101549181019190915260658310610e8c5760405162461bcd60e51b815260206004820181905260248201527f4352616e6b3a2043616e6e6f74207368617265203e3130302070657263656e7460448201526064016107d1565b60208101511515600114610eb25760405162461bcd60e51b81526004016107d190611fba565b6363541b404211610ed55760405162461bcd60e51b81526004016107d190611fe9565b6000610ee482604001516115f4565b610ef690670de0b6b3a7640000611fa3565b905060006064610f068684611fa3565b610f109190612034565b90506000610f1e8284612048565b9050610f2933610913565b610f316116eb565b60405183815233906000805160206121c38339815191529060200160405180910390a260008211610f745760405162461bcd60e51b81526004016107d19061209e565b6001610f836201518082611fa3565b610f8d9190612048565b610f9a6201518087611fa3565b11610fb75760405162461bcd60e51b81526004016107d1906120cc565b610fc6620151806103e8611fa3565b610fd1906001612074565b610fde6201518087611fa3565b10610ffb5760405162461bcd60e51b81526004016107d1906120ff565b336000908152600b60205260409020600201541561102b5760405162461bcd60e51b81526004016107d190612132565b61103582866119e2565b604080518381526020810187905233917f1449c6dd7851abc30abf37f57715f492010519147cc2652fbc38202c18a6ee909101610947565b8161107733610428565b10156110bf5760405162461bcd60e51b815260206004820152601760248201527658454e3a206e6f7420656e6f7567682062616c616e636560481b60448201526064016107d1565b600082116110df5760405162461bcd60e51b81526004016107d19061209e565b60016110ee6201518082611fa3565b6110f89190612048565b6111056201518083611fa3565b116111225760405162461bcd60e51b81526004016107d1906120cc565b611131620151806103e8611fa3565b61113c906001612074565b6111496201518083611fa3565b106111665760405162461bcd60e51b81526004016107d1906120ff565b336000908152600b6020526040902060020154156111965760405162461bcd60e51b81526004016107d190612132565b6111a03383611a85565b6111aa82826119e2565b604080518381526020810183905233917f1449c6dd7851abc30abf37f57715f492010519147cc2652fbc38202c18a6ee909101610de9565b60606004805461060f90611f53565b60006111fb611b9d565b905090565b600081116112485760405162461bcd60e51b8152602060048201526015602482015274109d5c9b8e8810995b1bddc81b5a5b881b1a5b5a5d605a1b60448201526064016107d1565b336040516301ffc9a760e01b815263543746b160e01b60048201526001600160a01b0391909116906301ffc9a790602401602060405180830381865afa158015611296573d6000803e3d6000fd5b505050506040513d601f19601f820116820180604052508101906112ba919061215d565b6113065760405162461bcd60e51b815260206004820152601e60248201527f4275726e3a206e6f74206120737570706f7274656420636f6e7472616374000060448201526064016107d1565b611311823383611723565b61131b8282611a85565b6001600160a01b0382166000908152600c602052604081208054839290611343908490612074565b9091555033905060405163543746b160e01b81526001600160a01b03848116600483015260248201849052919091169063543746b190604401600060405180830381600087803b15801561139657600080fd5b505af11580156113aa573d6000803e3d6000fd5b505050505050565b6000806113c161010084612034565b905060006113d16101008561217f565b60009283526005602052604090922054600190921b9182169091149392505050565b60003381611401828661148b565b9050838110156114615760405162461bcd60e51b815260206004820152602560248201527f45524332303a2064656372656173656420616c6c6f77616e63652062656c6f77604482015264207a65726f60d81b60648201526084016107d1565b61097082868684036114cf565b6000336106a081858561179d565b6106ba620151806103e8611fa3565b6001600160a01b03918216600090815260016020908152604080832093909416825291909152205490565b60016114c56201518082611fa3565b6106ba9190612048565b6001600160a01b0383166115315760405162461bcd60e51b8152602060048201526024808201527f45524332303a20617070726f76652066726f6d20746865207a65726f206164646044820152637265737360e01b60648201526084016107d1565b6001600160a01b0382166115925760405162461bcd60e51b815260206004820152602260248201527f45524332303a20617070726f766520746f20746865207a65726f206164647265604482015261737360f01b60648201526084016107d1565b6001600160a01b0383811660008181526001602090815260408083209487168084529482529182902085905590518481527f8c5be1e5ebec7d5bd14f71427d1e84f3dd0314c0f7b2291e5b200ac8c7c3b92591015b60405180910390a3505050565b6000806116056363541b4042612048565b9050600061161282611c11565b90508360646116218382612048565b61162b9083611fa3565b6116359190612034565b95945050505050565b6001600160a01b0382166116945760405162461bcd60e51b815260206004820152601f60248201527f45524332303a206d696e7420746f20746865207a65726f20616464726573730060448201526064016107d1565b80600260008282546116a69190612074565b90915550506001600160a01b038216600081815260208181526040808320805486019055518481526000805160206121e3833981519152910160405180910390a35050565b336000908152600a6020526040812080546001600160a81b0319168155600101819055600780549161171c83612087565b9190505550565b600061172f848461148b565b90506000198114611797578181101561178a5760405162461bcd60e51b815260206004820152601d60248201527f45524332303a20696e73756666696369656e7420616c6c6f77616e636500000060448201526064016107d1565b61179784848484036114cf565b50505050565b6001600160a01b0383166118015760405162461bcd60e51b815260206004820152602560248201527f45524332303a207472616e736665722066726f6d20746865207a65726f206164604482015264647265737360d81b60648201526084016107d1565b6001600160a01b0382166118635760405162461bcd60e51b815260206004820152602360248201527f45524332303a207472616e7366657220746f20746865207a65726f206164647260448201526265737360e81b60648201526084016107d1565b6001600160a01b038316600090815260208190526040902054818110156118db5760405162461bcd60e51b815260206004820152602660248201527f45524332303a207472616e7366657220616d6f756e7420657863656564732062604482015265616c616e636560d01b60648201526084016107d1565b6001600160a01b03848116600081815260208181526040808320878703905593871680835291849020805487019055925185815290926000805160206121e3833981519152910160405180910390a3611797565b60008261193c8584611ce8565b14949350505050565b600061195361010083612034565b905060006119636101008461217f565b6000928352600560205260409092208054600190931b9092179091555050565b6000824211156119d657600061016d61199c8685611fa3565b6119a990620f4240611fa3565b6119b39190612034565b90506305f5e1006119c48288611fa3565b6119ce9190612034565b9150506119da565b5060005b949350505050565b60405180608001604052808281526020016201518083611a029190611fa3565b611a0c9042612074565b8152602001838152602001611a1f611b9d565b9052336000908152600b602090815260408083208451815591840151600183015583015160028201556060909201516003909201919091556008805491611a658361205b565b91905055508160096000828254611a7c9190612074565b90915550505050565b6001600160a01b038216611ae55760405162461bcd60e51b815260206004820152602160248201527f45524332303a206275726e2066726f6d20746865207a65726f206164647265736044820152607360f81b60648201526084016107d1565b6001600160a01b03821660009081526020819052604090205481811015611b595760405162461bcd60e51b815260206004820152602260248201527f45524332303a206275726e20616d6f756e7420657863656564732062616c616e604482015261636560f01b60648201526084016107d1565b6001600160a01b0383166000818152602081815260408083208686039055600280548790039055518581529192916000805160206121e383398151915291016115e7565b600080611baf61016d62015180611fa3565b611bd97f000000000000000000000000000000000000000000000000000000000000000042612048565b611be39190612034565b905080611bf2600f6025612048565b1015611c0057600f91505090565b611c0b816025612048565b91505090565b600080611c216201518084612034565b9050611c30600161016d612048565b811115611c405750606392915050565b6000600161016d611c52846003612074565b6001901b611c609190612034565b611c6a9190612048565b604051637ae2b5c760e01b8152600481018290526063602482015290915073__Math__________________________________90637ae2b5c790604401602060405180830381865af4158015611cc4573d6000803e3d6000fd5b505050506040513d601f19601f820116820180604052508101906119da9190612193565b600081815b8451811015611d54576000858281518110611d0a57611d0a6121ac565b60200260200101519050808311611d305760008381526020829052604090209250611d41565b600081815260208490526040902092505b5080611d4c8161205b565b915050611ced565b509392505050565b600060208083528351808285015260005b81811015611d8957858101830151858201604001528201611d6d565b506000604082860101526040601f19601f8301168501019250505092915050565b80356001600160a01b0381168114611dc157600080fd5b919050565b60008060408385031215611dd957600080fd5b611de283611daa565b946020939093013593505050565b600080600060608486031215611e0557600080fd5b611e0e84611daa565b9250611e1c60208501611daa565b9150604084013590509250925092565b600080600080600060808688031215611e4457600080fd5b85359450611e5460208701611daa565b935060408601359250606086013567ffffffffffffffff80821115611e7857600080fd5b818801915088601f830112611e8c57600080fd5b813581811115611e9b57600080fd5b8960208260051b8501011115611eb057600080fd5b9699959850939650602001949392505050565b60008060408385031215611ed657600080fd5b50508035926020909101359150565b600060208284031215611ef757600080fd5b611f0082611daa565b9392505050565b600060208284031215611f1957600080fd5b5035919050565b60008060408385031215611f3357600080fd5b611f3c83611daa565b9150611f4a60208401611daa565b90509250929050565b600181811c90821680611f6757607f821691505b602082108103611f8757634e487b7160e01b600052602260045260246000fd5b50919050565b634e487b7160e01b600052601160045260246000fd5b80820281158282048414176106a6576106a6611f8d565b6020808252601590820152744352616e6b3a204e6f206d696e742065786973747360581b604082015260600190565b6020808252818101527f4352616e6b3a204d696e74206d61747572697479206e6f742072656163686564604082015260600190565b634e487b7160e01b600052601260045260246000fd5b6000826120435761204361201e565b500490565b818103818111156106a6576106a6611f8d565b60006001820161206d5761206d611f8d565b5060010190565b808201808211156106a6576106a6611f8d565b60008161209657612096611f8d565b506000190190565b60208082526014908201527358454e3a2042656c6f77206d696e207374616b6560601b604082015260600190565b60208082526019908201527858454e3a2042656c6f77206d696e207374616b65207465726d60381b604082015260600190565b60208082526019908201527858454e3a2041626f7665206d6178207374616b65207465726d60381b604082015260600190565b60208082526011908201527058454e3a207374616b652065786973747360781b604082015260600190565b60006020828403121561216f57600080fd5b81518015158114611f0057600080fd5b60008261218e5761218e61201e565b500690565b6000602082840312156121a557600080fd5b5051919050565b634e487b7160e01b600052603260045260246000fdfed74752b13281df13701575f3a507e9b1242e0b5fb040143211c481c1fce573a6ddf252ad1be2c89b69c2b068fc378daa952ba7f163c4a11628f55a4df523b3efa2646970667358221220ed3b84e6590243aa91b5c8f2939940df45999e5e535042071185b0557d4e434864736f6c63430008110033",
  "immutableReferences": {
    "3993": [
      {
        "length": 32,
        "start": 813
      },
      {
        "length": 32,
        "start": 2653
      }
    ],
    "3995": [
      {
        "length": 32,
        "start": 1477
      },
      {
        "length": 32,
        "start": 7092
      }
    ]
  },
  "source": "// SPDX-License-Identifier: MIT\npragma solidity ^0.8.10;\n\nimport './MerkleProof.sol';\nimport \"./Math.sol\";\nimport \"./ERC20.sol\";\nimport \"./IERC165.sol\";\nimport \"./ABDKMath64x64.sol\";\nimport \"./IStakingToken.sol\";\nimport \"./IRankedMintingToken.sol\";\nimport \"./IBurnableToken.sol\";\nimport \"./IBurnRedeemable.sol\";\nimport \"./IMerkleDistributor.sol\";\n\n\n\ncontract XENCrypto is Context, IRankedMintingToken, IStakingToken, IBurnableToken, ERC20(\"LEVIN Crypto\", \"LEV\") {\n    using Math for uint256;\n    using ABDKMath64x64 for int128;\n    using ABDKMath64x64 for uint256;\n\n\n    mapping(uint256 => uint256) private claimedBitMap;\n\n    function isClaimed(uint256 index) public view returns (bool) {\n        uint256 claimedWordIndex = index / 256;\n        uint256 claimedBitIndex = index % 256;\n        uint256 claimedWord = claimedBitMap[claimedWordIndex];\n        uint256 mask = (1 << claimedBitIndex);\n        return claimedWord & mask == mask;\n    }\n\n    function _setClaimed(uint256 index) private {\n        uint256 claimedWordIndex = index / 256;\n        uint256 claimedBitIndex = index % 256;\n        claimedBitMap[claimedWordIndex] = claimedBitMap[claimedWordIndex] | (1 << claimedBitIndex);\n    }\n    \n\n    // INTERNAL TYPE TO DESCRIBE A XEN MINT INFO\n    struct MintInfo {\n        address user;\n        bool claimed;\n        uint256 amount;\n    }\n\n    // INTERNAL TYPE TO DESCRIBE A XEN STAKE\n    struct StakeInfo {\n        uint256 term;\n        uint256 maturityTs;\n        uint256 amount;\n        uint256 apy;\n    }\n\n    // PUBLIC CONSTANTS\n    event Claimed(uint256 index, address account, uint256 amount);\n    uint256 public constant SECONDS_IN_DAY = 3_600 * 24;\n    uint256 public constant DAYS_IN_YEAR = 365;\n\n    uint256 public constant GENESIS_RANK = 1;\n\n    uint256 public constant MIN_TERM = 1 * SECONDS_IN_DAY - 1;\n    uint256 public constant MAX_TERM_START = 100 * SECONDS_IN_DAY;\n    uint256 public constant MAX_TERM_END = 1_000 * SECONDS_IN_DAY;\n\n    uint256 public constant START_TIME = 1666456384;\n    //10/22/2022 @ 4:33pm UTC\n\n    uint256 public constant WITHDRAWAL_WINDOW_DAYS = 365;\n    uint256 public constant MAX_PENALTY_PCT = 99;\n\n    uint256 public constant XEN_MIN_STAKE = 0;\n\n    uint256 public constant XEN_MIN_BURN = 0;\n\n    uint256 public constant XEN_APY_START = 37;\n    uint256 public constant XEN_APY_DAYS_STEP = 365;\n    uint256 public constant XEN_APY_END = 15;\n/* \n    string public constant AUTHORS = \"@MrJackLevin @lbelyaev faircrypto.org\";\n */\n    // PUBLIC STATE, READABLE VIA NAMESAKE GETTERS\n    bytes32 public immutable merkleRoot;\n    uint256 public immutable genesisTs;\n    uint256 public globalRank = GENESIS_RANK;\n    uint256 public activeMinters;\n    uint256 public activeStakes;\n    uint256 public totalXenStaked;\n    // user address => XEN mint info\n    mapping(address => MintInfo) public userMints;\n    // user address => XEN stake info\n    mapping(address => StakeInfo) public userStakes;\n    // user address => XEN burn amount\n    mapping(address => uint256) public userBurns;\n\n    // CONSTRUCTOR\n    constructor(bytes32 merkleRoot_) {\n        genesisTs = block.timestamp;\n        merkleRoot = merkleRoot_;\n    }\n\n    // PRIVATE METHODS\n    /**\n     * @dev calculates Withdrawal Penalty depending on lateness\n     */\n    function _penalty(uint256 secsLate) private pure returns (uint256) {\n        // =MIN(2^(daysLate+3)/window-1,99)\n        uint256 daysLate = secsLate / SECONDS_IN_DAY;\n        if (daysLate > WITHDRAWAL_WINDOW_DAYS - 1) return MAX_PENALTY_PCT;\n        uint256 penalty = (uint256(1) << (daysLate + 3)) / WITHDRAWAL_WINDOW_DAYS - 1;\n        return Math.min(penalty, MAX_PENALTY_PCT);\n    }\n\n    /**\n     * @dev calculates net Mint Reward (adjusted for Penalty)\n     */\n    function _calculateMintReward(\n        uint256 amount\n    ) private view returns (uint256) {\n        uint256 secsLate = block.timestamp - START_TIME;\n        uint256 penalty = _penalty(secsLate);\n        uint256 reward = amount;\n        return (reward * (100 - penalty)) / 100;\n    }\n\n    /**\n     * @dev cleans up User Mint storage (gets some Gas credit;))\n     */\n    function _cleanUpUserMint() private {\n        delete userMints[_msgSender()];\n        activeMinters--;\n    }\n\n    /**\n     * @dev calculates XEN Stake Reward\n     */\n    function _calculateStakeReward(\n        uint256 amount,\n        uint256 term,\n        uint256 maturityTs,\n        uint256 apy\n    ) private view returns (uint256) {\n        if (block.timestamp > maturityTs) {\n            uint256 rate = (apy * term * 1_000_000) / DAYS_IN_YEAR;\n            return (amount * rate) / 100_000_000;\n        }\n        return 0;\n    }\n\n    /**\n     * @dev calculates APY (in %)\n     */\n    function _calculateAPY() private view returns (uint256) {\n        uint256 decrease = (block.timestamp - genesisTs) / (SECONDS_IN_DAY * XEN_APY_DAYS_STEP);\n        if (XEN_APY_START - XEN_APY_END < decrease) return XEN_APY_END;\n        return XEN_APY_START - decrease;\n    }\n\n    /**\n     * @dev creates User Stake\n     */\n    function _createStake(uint256 amount, uint256 term) private {\n        userStakes[_msgSender()] = StakeInfo({\n            term: term,\n            maturityTs: block.timestamp + term * SECONDS_IN_DAY,\n            amount: amount,\n            apy: _calculateAPY()\n        });\n        activeStakes++;\n        totalXenStaked += amount;\n    }\n\n    // PUBLIC CONVENIENCE GETTERS\n\n\n    /**\n     * @dev returns User Mint object associated with User account address\n     */\n    function getUserMint() external view returns (MintInfo memory) {\n        return userMints[_msgSender()];\n    }\n\n    /**\n     * @dev returns XEN Stake object associated with User account address\n     */\n    function getUserStake() external view returns (StakeInfo memory) {\n        return userStakes[_msgSender()];\n    }\n\n    /**\n     * @dev returns current APY\n     */\n    function getCurrentAPY() external view returns (uint256) {\n        return _calculateAPY();\n    }\n\n    // PUBLIC STATE-CHANGING METHODS\n\n    /**\n     * @dev accepts User cRank claim provided all checks pass (incl. no current claim exists)\n     */\n    function claim(uint256 index, address account, uint256 _amount, bytes32[] calldata merkleProof) external {\n\n        require(!isClaimed(index), \"MerkleDistributor: Drop already claimed.\");\n           // Verify the merkle proof.\n        bytes32 node = keccak256(abi.encodePacked(index, account, _amount));\n        require(MerkleProof.verify(merkleProof, merkleRoot, node), \"MerkleDistributor: Invalid proof.\");\n        // Mark it claimed.\n        _setClaimed(index);\n        // create and store new MintInfo\n        MintInfo memory mintInfo = MintInfo({\n            user: _msgSender(),\n            claimed: true,\n            amount: _amount\n        });\n        userMints[_msgSender()] = mintInfo;\n        activeMinters++;\n        emit Claimed(index, account, _amount);\n    }\n\n    /**\n     * @dev ends minting upon maturity (and within permitted Withdrawal Time Window), gets minted XEN\n     */\n    function claimMintReward() external {\n        MintInfo memory mintInfo = userMints[_msgSender()];\n        require(mintInfo.claimed == true, \"CRank: No mint exists\");\n\n        // calculate reward and mint tokens\n        uint256 rewardAmount = _calculateMintReward(\n            mintInfo.amount\n        ) * 1 ether;\n        _mint(_msgSender(), rewardAmount);\n\n        _cleanUpUserMint();\n        emit MintClaimed(_msgSender(), rewardAmount);\n    }\n\n    /**\n     * @dev  ends minting upon maturity (and within permitted Withdrawal time Window)\n     *       mints XEN coins and splits them between User and designated other address\n     */\n    function claimMintRewardAndShare(address other, uint256 pct) external {\n        MintInfo memory mintInfo = userMints[_msgSender()];\n        require(other != address(0), \"CRank: Cannot share with zero address\");\n        require(pct > 0, \"CRank: Cannot share zero percent\");\n        require(pct < 101, \"CRank: Cannot share 100+ percent\");\n        require(mintInfo.claimed == true, \"CRank: No mint exists\");\n        require(block.timestamp > START_TIME, \"CRank: Mint maturity not reached\");\n\n        // calculate reward\n        uint256 rewardAmount = _calculateMintReward(\n            mintInfo.amount\n        ) * 1 ether;\n        uint256 sharedReward = (rewardAmount * pct) / 100;\n        uint256 ownReward = rewardAmount - sharedReward;\n\n        // mint reward tokens\n        _mint(_msgSender(), ownReward);\n        _mint(other, sharedReward);\n\n        _cleanUpUserMint();\n        emit MintClaimed(_msgSender(), rewardAmount);\n    }\n\n    /**\n     * @dev  ends minting upon maturity (and within permitted Withdrawal time Window)\n     *       mints XEN coins and stakes 'pct' of it for 'term'\n     */\n    function claimMintRewardAndStake(uint256 pct, uint256 term) external {\n        MintInfo memory mintInfo = userMints[_msgSender()];\n        // require(pct > 0, \"CRank: Cannot share zero percent\");\n        require(pct < 101, \"CRank: Cannot share >100 percent\");\n        require(mintInfo.claimed == true, \"CRank: No mint exists\");\n        require(block.timestamp > START_TIME, \"CRank: Mint maturity not reached\");\n\n        // calculate reward\n        uint256 rewardAmount = _calculateMintReward(\n            mintInfo.amount\n        ) * 1 ether;\n        uint256 stakedReward = (rewardAmount * pct) / 100;\n        uint256 ownReward = rewardAmount - stakedReward;\n\n        // mint reward tokens part\n        _mint(_msgSender(), ownReward);\n        _cleanUpUserMint();\n        emit MintClaimed(_msgSender(), rewardAmount);\n\n        // nothing to burn since we haven't minted this part yet\n        // stake extra tokens part\n        require(stakedReward > XEN_MIN_STAKE, \"XEN: Below min stake\");\n        require(term * SECONDS_IN_DAY > MIN_TERM, \"XEN: Below min stake term\");\n        require(term * SECONDS_IN_DAY < MAX_TERM_END + 1, \"XEN: Above max stake term\");\n        require(userStakes[_msgSender()].amount == 0, \"XEN: stake exists\");\n\n        _createStake(stakedReward, term);\n        emit Staked(_msgSender(), stakedReward, term);\n    }\n\n    /**\n     * @dev initiates XEN Stake in amount for a term (days)\n     */\n    function stake(uint256 amount, uint256 term) external {\n        require(balanceOf(_msgSender()) >= amount, \"XEN: not enough balance\");\n        require(amount > XEN_MIN_STAKE, \"XEN: Below min stake\");\n        require(term * SECONDS_IN_DAY > MIN_TERM, \"XEN: Below min stake term\");\n        require(term * SECONDS_IN_DAY < MAX_TERM_END + 1, \"XEN: Above max stake term\");\n        require(userStakes[_msgSender()].amount == 0, \"XEN: stake exists\");\n\n        // burn staked XEN\n        _burn(_msgSender(), amount);\n        // create XEN Stake\n        _createStake(amount, term);\n        emit Staked(_msgSender(), amount, term);\n    }\n\n    /**\n     * @dev ends XEN Stake and gets reward if the Stake is mature\n     */\n    function withdraw() external {\n        StakeInfo memory userStake = userStakes[_msgSender()];\n        require(userStake.amount > 0, \"XEN: no stake exists\");\n\n        uint256 xenReward = _calculateStakeReward(\n            userStake.amount,\n            userStake.term,\n            userStake.maturityTs,\n            userStake.apy\n        );\n        activeStakes--;\n        totalXenStaked -= userStake.amount;\n\n        // mint staked XEN (+ reward)\n        _mint(_msgSender(), userStake.amount + xenReward);\n        emit Withdrawn(_msgSender(), userStake.amount, xenReward);\n        delete userStakes[_msgSender()];\n    }\n\n    /**\n     * @dev burns XEN tokens and creates Proof-Of-Burn record to be used by connected DeFi services\n     */\n    function burn(address user, uint256 amount) public {\n        require(amount > XEN_MIN_BURN, \"Burn: Below min limit\");\n        require(\n            IERC165(_msgSender()).supportsInterface(type(IBurnRedeemable).interfaceId),\n            \"Burn: not a supported contract\"\n        );\n\n        _spendAllowance(user, _msgSender(), amount);\n        _burn(user, amount);\n        userBurns[user] += amount;\n        IBurnRedeemable(_msgSender()).onTokenBurned(user, amount);\n    }\n}",
  "sourcePath": "/Users/chrismanning/Desktop/SolidityRepo/Production/XEN-crypto/contracts/XENCLAIMMOD.sol",
  "compiler": {
    "name": "solc",
    "version": "0.8.17+commit.8df45f5f.Emscripten.clang"
  },
  "schemaVersion": "3.4.3",
  "updatedAt": "2022-10-25T16:34:42.854Z",
  "devdoc": {
    "kind": "dev",
    "methods": {
      "allowance(address,address)": {
        "details": "See {IERC20-allowance}."
      },
      "approve(address,uint256)": {
        "details": "See {IERC20-approve}. NOTE: If `amount` is the maximum `uint256`, the allowance is not updated on `transferFrom`. This is semantically equivalent to an infinite approval. Requirements: - `spender` cannot be the zero address."
      },
      "balanceOf(address)": {
        "details": "See {IERC20-balanceOf}."
      },
      "burn(address,uint256)": {
        "details": "burns XEN tokens and creates Proof-Of-Burn record to be used by connected DeFi services"
      },
      "claim(uint256,address,uint256,bytes32[])": {
        "details": "accepts User cRank claim provided all checks pass (incl. no current claim exists)"
      },
      "claimMintReward()": {
        "details": "ends minting upon maturity (and within permitted Withdrawal Time Window), gets minted XEN"
      },
      "claimMintRewardAndShare(address,uint256)": {
        "details": "ends minting upon maturity (and within permitted Withdrawal time Window)       mints XEN coins and splits them between User and designated other address"
      },
      "claimMintRewardAndStake(uint256,uint256)": {
        "details": "ends minting upon maturity (and within permitted Withdrawal time Window)       mints XEN coins and stakes 'pct' of it for 'term'"
      },
      "decimals()": {
        "details": "Returns the number of decimals used to get its user representation. For example, if `decimals` equals `2`, a balance of `505` tokens should be displayed to a user as `5.05` (`505 / 10 ** 2`). Tokens usually opt for a value of 18, imitating the relationship between Ether and Wei. This is the value {ERC20} uses, unless this function is overridden; NOTE: This information is only used for _display_ purposes: it in no way affects any of the arithmetic of the contract, including {IERC20-balanceOf} and {IERC20-transfer}."
      },
      "decreaseAllowance(address,uint256)": {
        "details": "Atomically decreases the allowance granted to `spender` by the caller. This is an alternative to {approve} that can be used as a mitigation for problems described in {IERC20-approve}. Emits an {Approval} event indicating the updated allowance. Requirements: - `spender` cannot be the zero address. - `spender` must have allowance for the caller of at least `subtractedValue`."
      },
      "getCurrentAPY()": {
        "details": "returns current APY"
      },
      "getUserMint()": {
        "details": "returns User Mint object associated with User account address"
      },
      "getUserStake()": {
        "details": "returns XEN Stake object associated with User account address"
      },
      "increaseAllowance(address,uint256)": {
        "details": "Atomically increases the allowance granted to `spender` by the caller. This is an alternative to {approve} that can be used as a mitigation for problems described in {IERC20-approve}. Emits an {Approval} event indicating the updated allowance. Requirements: - `spender` cannot be the zero address."
      },
      "name()": {
        "details": "Returns the name of the token."
      },
      "stake(uint256,uint256)": {
        "details": "initiates XEN Stake in amount for a term (days)"
      },
      "symbol()": {
        "details": "Returns the symbol of the token, usually a shorter version of the name."
      },
      "totalSupply()": {
        "details": "See {IERC20-totalSupply}."
      },
      "transfer(address,uint256)": {
        "details": "See {IERC20-transfer}. Requirements: - `to` cannot be the zero address. - the caller must have a balance of at least `amount`."
      },
      "transferFrom(address,address,uint256)": {
        "details": "See {IERC20-transferFrom}. Emits an {Approval} event indicating the updated allowance. This is not required by the EIP. See the note at the beginning of {ERC20}. NOTE: Does not update the allowance if the current allowance is the maximum `uint256`. Requirements: - `from` and `to` cannot be the zero address. - `from` must have a balance of at least `amount`. - the caller must have allowance for ``from``'s tokens of at least `amount`."
      },
      "withdraw()": {
        "details": "ends XEN Stake and gets reward if the Stake is mature"
      }
    },
    "version": 1
  },
  "userdoc": {
    "kind": "user",
    "methods": {},
    "version": 1
  }
}